S007000041474348e5
S2240000000000000000000000000000000000000000000000000000000000000000000000db
S2240000200000000000000000000000000000000000000000000000000000000000000000bb
S22400004000000000000000000000000000000000000000000000000000000000000000009b
S22400006000000000000000000000000000000000000000000000000000000000000000007b
S22400100038db584238dc584138dd584038f1583338f4583438f6583538f9583638fa58371d
S22400102038e6583138e500067031400078e80006181a08355c01400078e9000618200835b2
S22400104038e7583138e50006703178ea0006182908355c0178eb0006182e0835304278d82e
S22400106068d4584200060208083b304278d868d558420006020838ee583238ed5c0138ec43
S22400108000061032400078ef0006184708545c01400078f00006184d0854304278d968d6ce
S2240010a0584200060208085a304278d968d7584200060208000628333033400078f20006ff
S2240010c01862087100062c333033400078f30006186a0871304178d868d4584100060208fe
S2240010e00877304178d868d558410006020838f100066034400078f50006187f088f38f7f2
S224001100400000062035400078f800061888088f304178d968d6584100060208089530418b
S22400112078d968d75841000602080006403778f90006189b08a75c0178fa000618a008a7df
S224001140304078d868d458400006020808ad304078d868d558400006020838fb5810581287
S22400116058115813601060126011601368fc08bf601060126011601368fd08bf08c51000d6
S22400118018cc18cc100018cc0002304078d968d658400006020808d2304078d968d7584073
S2240011a00006020818d308d2001c0005038000a07fe07c1f280077ff6fff67ff5fff57fff1
S2240011c04fff47ff3fff37ff2fff1ce410416fbe075615e4075655e414e53700228a26b9af
S2240011e005460009000a0009000200073b6d39240b6e029c00012aaa550000010000000033
S2240012000000000000000000000000000000000000000000000000000000000000000000c9
S2240012200000000000000000000000000000000000000000000000000000000000000000a9
S224001240000000000000000000000000000000000000000000000000000000000000000089
S224001260000000000000000000000000000000000000000000000000000000000000000069
S9030000fc
