S21400000000000000000000000000000000000000eb
S21400001000000000000000000000000000000000db
S21400002000000000000000000000000000000000cb
S21400003000000000000000000000000000000000bb
S214000810385838007040780018085c40780018088f
S2140008203858380070780018085c78001808307857
S21400083068580002083078685800023858385c3823
S214000840001040780018085c407800180830786877
S21400085058000208307868580002002830407800b7
S2140008601808002c304078001808307868580002c5
S2140008700830786858000238006040780018083859
S2140008804000204078001808307868580002083089
S21400089078685800020040780018085c780018084d
S2140008a0307868580002083078685800023858587f
S2140008b0585860606060680860606060680808108b
S2140008c018181018003078685800020830786858f1
S2140008d000021808000003007f7c28776f675f57c8
S2140008e04f473f372f1c106f071507551437222622
S2140008f00500000000003b390b02002a55000000ee
S21400090000000000000000000000000000000000e2
S21400091000000000000000000000000000000000d2
S21400092000000000000000000000000000000000c2
S21400093000000000000000000000000000000000b2
S804000000fb
